{
  "_format": "hh-sol-artifact-1",
  "contractName": "VendingMachineV1",
  "sourceName": "contracts/VendingMachineV1.sol",
  "abi": [
    {
      "inputs": [],
      "name": "InvalidInitialization",
      "type": "error"
    },
    {
      "inputs": [],
      "name": "NotInitializing",
      "type": "error"
    },
    {
      "anonymous": false,
      "inputs": [
        {
          "indexed": false,
          "internalType": "uint64",
          "name": "version",
          "type": "uint64"
        }
      ],
      "name": "Initialized",
      "type": "event"
    },
    {
      "inputs": [
        {
          "internalType": "uint256",
          "name": "_numSodas",
          "type": "uint256"
        }
      ],
      "name": "initialize",
      "outputs": [],
      "stateMutability": "nonpayable",
      "type": "function"
    },
    {
      "inputs": [],
      "name": "numSodas",
      "outputs": [
        {
          "internalType": "uint256",
          "name": "",
          "type": "uint256"
        }
      ],
      "stateMutability": "view",
      "type": "function"
    },
    {
      "inputs": [],
      "name": "owner",
      "outputs": [
        {
          "internalType": "address",
          "name": "",
          "type": "address"
        }
      ],
      "stateMutability": "view",
      "type": "function"
    },
    {
      "inputs": [],
      "name": "purchaseSoda",
      "outputs": [],
      "stateMutability": "payable",
      "type": "function"
    }
  ],
  "bytecode": "0x608060405234801561001057600080fd5b506105e0806100206000396000f3fe60806040526004361061003f5760003560e01c806363b18329146100445780637454ab6d1461006f5780638da5cb5b14610079578063fe4b84df146100a4575b600080fd5b34801561005057600080fd5b506100596100cd565b6040516100669190610366565b60405180910390f35b6100776100d3565b005b34801561008557600080fd5b5061008e610131565b60405161009b91906103c2565b60405180910390f35b3480156100b057600080fd5b506100cb60048036038101906100c6919061040e565b610157565b005b60005481565b6103e8341015610118576040517f08c379a000000000000000000000000000000000000000000000000000000000815260040161010f906104be565b60405180910390fd5b60008081548092919061012a9061050d565b9190505550565b600160009054906101000a900473ffffffffffffffffffffffffffffffffffffffff1681565b6000610161610325565b905060008160000160089054906101000a900460ff1615905060008260000160009054906101000a900467ffffffffffffffff1690506000808267ffffffffffffffff161480156101af5750825b9050600060018367ffffffffffffffff161480156101e4575060003073ffffffffffffffffffffffffffffffffffffffff163b145b9050811580156101f2575080155b15610229576040517ff92ee8a900000000000000000000000000000000000000000000000000000000815260040160405180910390fd5b60018560000160006101000a81548167ffffffffffffffff021916908367ffffffffffffffff16021790555083156102795760018560000160086101000a81548160ff0219169083151502179055505b8560008190555033600160006101000a81548173ffffffffffffffffffffffffffffffffffffffff021916908373ffffffffffffffffffffffffffffffffffffffff160217905550831561031d5760008560000160086101000a81548160ff0219169083151502179055507fc7f505b2f371ae2175ee4913f4499e1f2633a7b5936321eed1cdaeb6115181d26001604051610314919061058f565b60405180910390a15b505050505050565b60007ff0c57e16840df040f15088dc2f81fe391c3923bec73e23a9662efc9c229c6a00905090565b6000819050919050565b6103608161034d565b82525050565b600060208201905061037b6000830184610357565b92915050565b600073ffffffffffffffffffffffffffffffffffffffff82169050919050565b60006103ac82610381565b9050919050565b6103bc816103a1565b82525050565b60006020820190506103d760008301846103b3565b92915050565b600080fd5b6103eb8161034d565b81146103f657600080fd5b50565b600081359050610408816103e2565b92915050565b600060208284031215610424576104236103dd565b5b6000610432848285016103f9565b91505092915050565b600082825260208201905092915050565b7f596f75206d7573742070617920313030302077656920666f72206120736f646160008201527f2100000000000000000000000000000000000000000000000000000000000000602082015250565b60006104a860218361043b565b91506104b38261044c565b604082019050919050565b600060208201905081810360008301526104d78161049b565b9050919050565b7f4e487b7100000000000000000000000000000000000000000000000000000000600052601160045260246000fd5b60006105188261034d565b91506000820361052b5761052a6104de565b5b600182039050919050565b6000819050919050565b600067ffffffffffffffff82169050919050565b6000819050919050565b600061057961057461056f84610536565b610554565b610540565b9050919050565b6105898161055e565b82525050565b60006020820190506105a46000830184610580565b9291505056fea2646970667358221220e86ae3242c72d3a41851798bbc75c5ef5c9aac0fed63f7bba175c08247ad787864736f6c63430008180033",
  "linkReferences": {},
  "deployedLinkReferences": {}
}